:0E0000001BC0FECFFDCFFCCFFBCFFACFF9CF58
:10000E00F8CFF7CFF6CFF5CFF4CFF3CFF2CFF1CFC6
:10001E00F0CFEFCFEECFEDCF1027E80364000A004C
:10002E0001000010000110000100F894EE27ECBB57
:10003E00F1E0FBBFEBBFE5BF8DE0A2E0BB27ED9388
:10004E008A95E9F780E094E0A0E6ED930197E9F751
:10005E00EFE5EDBFE4E0EEBFC0E6D1E000C009D0B1
:10006E0013D0A1E61CD0C19AAAEFB0E01FD0F9CFF1
:10007E00FFCFEFEFE7BBE0E0E8BBE4BBE5BBE2E1BF
:10008E00E1BBE0E0E2BB0895E0E0EBB9E8E1EAB9FC
:10009E00E6E8E0BDE0E0E0BDE3E3E9B90895AA9348
:1000AE005D9BFECFE881ECB921960895109639F04C
:1000BE0080ED97E00197F1F7A8951197C9F708958C
:00000001FF
