:0E0000001BC0FECFFDCFFCCFFBCFFACFF9CF58
:10000E00F8CFF7CFF6CFF5CFF4CFF3CFF2CFF1CFC6
:10001E00F0CFEFCFEECFEDCF1027E80364000A004C
:10002E0001000010000110000100F894EE27ECBB57
:10003E00F1E0FBBFEBBFE5BF8DE0A2E0BB27ED9388
:10004E008A95E9F780E094E0A0E6ED930197E9F751
:10005E00EFE5EDBFE4E0EEBFC0E6D1E000C00ED0AC
:10006E0018D022D05E2E24D009F4C19A21D009F0E6
:10007E00C198AAEFB0E025D0F4CFFFCFEFEFE7BBEA
:10008E00E0E0E8BBE4BBE5BBE2E1E1BBE0E0E2BB04
:10009E000895E0E0EBB9E8E1EAB9E6E8E0BDE0E0BA
:1000AE00E0BDE3E3E9B908955F9BFECFECB108959F
:1000BE00A52DBB27E2E0F0E025D0E130A0E0FA0765
:1000CE000895109639F080ED97E00197F1F7A89515
:1000DE001197C9F70895F195E195F0400895002420
:1000EE00112490E1AA0FBB1F001C111C0E1A1F0A2F
:1000FE0018F40E0E1F1E01C0A1609A9599F7FD010E
:10010E00D0010895E894B7FF04C0A095B09511965C
:10011E006894F7FDE0DFE3DFFD010EF4DCDF089508
:00000001FF
