:020000001BC023
:10000200FECFFDCFFCCFFBCFFACFF9CFF8CFF7CFA2
:10001200F6CFF5CFF4CFF3CFF2CFF1CFF0CFEFCFD2
:10002200EECFEDCF1027E80364000A0001000010B4
:10003200000110000100F894EE27ECBBF1E0FBBFD9
:10004200EBBFE5BF8DE0A2E0BB27ED938A95E9F710
:1000520080E094E0A0E6ED930197E9F7EFE5EDBFCC
:10006200E4E0EEBFC0E6D1E000C029D02CD0789405
:100072003ED0309711F139D0FF2766277727E093DA
:100082006001F09361016093620170936301A0913A
:100092006001B09161018091620190916301A2338C
:1000A200E0E0BE07E0E08E07E0E09E0714F4C09AAD
:1000B20001C0C098A091600111D0DACFFFCFE1E07A
:1000C200E7BB899A0895E0E0EBB9E8E1EAB9E4EA2E
:1000D200E0BDE0E0E0BDE3E3E9B90895AA935D9BEA
:1000E200FECFE881ECB921960895ECB108955F99AD
:1000F20003C0E0E0F0E00895E1E0F0E00895089543
:00000001FF
